{
  "contractName": "Donation",
  "abi": [
    {
      "inputs": [
        {
          "internalType": "address",
          "name": "",
          "type": "address"
        }
      ],
      "name": "donations",
      "outputs": [
        {
          "internalType": "uint256",
          "name": "",
          "type": "uint256"
        }
      ],
      "stateMutability": "view",
      "type": "function"
    },
    {
      "inputs": [],
      "name": "donate",
      "outputs": [],
      "stateMutability": "payable",
      "type": "function"
    },
    {
      "inputs": [
        {
          "internalType": "address",
          "name": "donor",
          "type": "address"
        }
      ],
      "name": "getDonationAmount",
      "outputs": [
        {
          "internalType": "uint256",
          "name": "",
          "type": "uint256"
        }
      ],
      "stateMutability": "view",
      "type": "function"
    }
  ],
  "bytecode": "0x608060405234801561000f575f80fd5b506103708061001d5f395ff3fe608060405260043610610033575f3560e01c80631479197f14610037578063cc6cb19a14610073578063ed88c68e146100af575b5f80fd5b348015610042575f80fd5b5061005d60048036038101906100589190610206565b6100b9565b60405161006a9190610249565b60405180910390f35b34801561007e575f80fd5b5061009960048036038101906100949190610206565b6100fe565b6040516100a69190610249565b60405180910390f35b6100b7610112565b005b5f805f8373ffffffffffffffffffffffffffffffffffffffff1673ffffffffffffffffffffffffffffffffffffffff1681526020019081526020015f20549050919050565b5f602052805f5260405f205f915090505481565b5f3411610154576040517f08c379a000000000000000000000000000000000000000000000000000000000815260040161014b906102bc565b60405180910390fd5b345f803373ffffffffffffffffffffffffffffffffffffffff1673ffffffffffffffffffffffffffffffffffffffff1681526020019081526020015f205f82825461019f9190610307565b92505081905550565b5f80fd5b5f73ffffffffffffffffffffffffffffffffffffffff82169050919050565b5f6101d5826101ac565b9050919050565b6101e5816101cb565b81146101ef575f80fd5b50565b5f81359050610200816101dc565b92915050565b5f6020828403121561021b5761021a6101a8565b5b5f610228848285016101f2565b91505092915050565b5f819050919050565b61024381610231565b82525050565b5f60208201905061025c5f83018461023a565b92915050565b5f82825260208201905092915050565b7f596f75206e65656420746f2073656e6420736f6d6520457468657200000000005f82015250565b5f6102a6601b83610262565b91506102b182610272565b602082019050919050565b5f6020820190508181035f8301526102d38161029a565b9050919050565b7f4e487b71000000000000000000000000000000000000000000000000000000005f52601160045260245ffd5b5f61031182610231565b915061031c83610231565b9250828201905080821115610334576103336102da565b5b9291505056fea2646970667358221220662a7577129e854b496503abb3d53df79910623fcb966fb2e48496e5f61cfc5d64736f6c63430008150033",
  "immutableReferences": {},
  "source": "// SPDX-License-Identifier: MIT\npragma solidity ^0.8.0;\n\ncontract Donation {\n    mapping(address => uint256) public donations;\n\n    function donate() public payable {\n        require(msg.value > 0, \"You need to send some Ether\");\n        donations[msg.sender] += msg.value;\n    }\n\n    function getDonationAmount(address donor) public view returns (uint256) {\n        return donations[donor];\n    }\n}\n",
  "sourcePath": "/Users/ericesposito/Dev/Job Applications/UNICEF/unicef-challenge/UNICEF-challenge/MyDonationContract/contracts/Donation.sol",
  "compiler": {
    "name": "solc",
    "version": "0.8.21+commit.d9974bed.Emscripten.clang"
  },
  "schemaVersion": "3.4.16",
  "updatedAt": "2024-01-14T22:30:58.280Z",
  "devdoc": {
    "kind": "dev",
    "methods": {},
    "version": 1
  },
  "userdoc": {
    "kind": "user",
    "methods": {},
    "version": 1
  }
}